:020000040800F2
:10000000004E002439030008315D000851570008F4
:10001000295D0008E90800084170000800000000A0
:1000200000000000000000000000000071610008F6
:10003000F108000800000000695D0008A9610008DF
:100040005303000853030008530300085303000838
:100050005303000853030008530300085303000828
:100060005303000853030008530300085303000818
:100070005303000853030008530300085303000808
:100080005303000853030008D9080008530300086D
:1000900053030008530300085303000853030008E8
:1000A00053030008530300085303000853030008D8
:1000B00053030008530300085303000853030008C8
:1000C00053030008530300085303000853030008B8
:1000D00053030008530300085303000853030008A8
:1000E00053030008530300080000000053030008F6
:1000F0005303000853030008530300085303000888
:100100005303000853030008530300085303000877
:100110005303000853030008A963000853030008B1
:100120005303000853030008530300085303000857
:100130005303000853030008530300085303000847
:1001400000000000000000000000000000000000AF
:100150005303000853030008530300085303000827
:100160005303000853030008530300085303000817
:100170005303000853030008530300085303000807
:1001800053030008530300085303000853030008F7
:1001900053030008530300085303000853030008E7
:1001A00053030008530300085303000853030008D7
:1001B00053030008530300085303000853030008C7
:1001C00053030008530300085303000853030008B7
:1001D00053030008530300085303000853030008A7
:1001E0005303000853030008530300085303000897
:1001F0005303000853030008530300085303000887
:100200005303000853030008530300085303000876
:100210005303000853030008530300085303000866
:1002200053030008530300085303000800000000B4
:1002300053030008530300080000000053030008A4
:100240005303000853030008530300085303000836
:100250005303000853030008530300085303000826
:100260005303000853030008530300085303000816
:100270005303000853030008530300080000000064
:100280005303000853030008530300080000000054
:10029000000000005303000800F002F800F03CF8F2
:1002A0000AA090E8000C82448344AAF10107DA45D1
:1002B00001D100F031F8AFF2090EBAE80F0013F0E7
:1002C000010F18BFFB1A43F001031847347C0000EC
:1002D000547C0000103A24BF78C878C1FAD852077D
:1002E00024BF30C830C144BF04680C6070470000B0
:1002F0000023002400250026103A28BF78C1FBD82F
:10030000520728BF30C148BF0B6070471FB507F0C8
:1003100071FC1FBD10B510BD00F0E9F81146FFF7E4
:10032000F5FF07F039FB00F007F903B4FFF7F2FF20
:1003300003BC06F0C5FE0000094880470948004795
:10034000FEE7FEE7FEE7FEE7FEE7FEE7FEE7FEE785
:10035000FEE7FEE704480549054A064B70470000E2
:10036000D962000899020008000A0024004E002407
:10037000000E0024000E0024704753EA020C00F027
:1003800069802DE9F04B4FF00006002B1FBFB3FA38
:1003900083F503FA05F424FA05F65E4012BF16430E
:1003A000B2FA82F502FA05F4C5F120051EBF22FA61
:1003B00005FC44EA0C04203556EA044C4FEA144488
:1003C00018BF641C4FF000084FF00009904271EB19
:1003D000030C39D3002919BFB1FA81F701FA07F6E6
:1003E000B0FA80F700FA07F6C7F120071EBF20FA1F
:1003F00007FC46EA0C062037B6FBF4FCA7EB050722
:10040000103F07F01F0BCBF120062CFA06F60CFA72
:100410000BFB44BFB3460026202FA4BF5E464FF01F
:10042000000B5BEA060C08BF4FF0010B19EB0B0940
:1004300048EB0608ABFB027C06FB02CC0BFB03CCB3
:10044000C01B71EB0C01C1E70B4602464146484612
:10045000BDE8F08B13B5084318BF4FF0FF300146DD
:10046000AFF30080BDE81C407047000010B50446A3
:1004700003E006F02DFE401C09D014F8010B0549DD
:100480000028F6D1BDE810400A2006F021BE4FF04A
:10049000FF3010BD780000244FF0000200B5134675
:1004A00094469646203922BFA0E80C50A0E80C5094
:1004B000B1F12001BFF4F7AF090728BFA0E80C5045
:1004C00048BF0CC05DF804EB890028BF40F8042B3E
:1004D00008BF704748BF20F8022B11F0804F18BFAB
:1004E00000F8012B7047704770477047704775469A
:1004F00000F02CF8AE4605006946534620F0070090
:10050000854618B020B5FFF725FFBDE820404FF025
:1005100000064FF000074FF000084FF0000BAC460C
:10052000ACE8C009ACE8C009ACE8C009ACE8C00957
:1005300021F007018D46704710B50446AFF30080E7
:100540002046BDE81040FFF7F0BE000000487047AD
:100550001000002400000000B0B50446006842F21C
:10056000001140F48070C4F20201884204D142F2CA
:100570000830C4F2020003E046F20830C5F602007B
:10058000006810F4403F10D003F066FC6168054637
:10059000B1F5803F05D0B1F5403F22D0B1F5003F25
:1005A00020D1080CB5FBF0F51CE04FF40020002131
:1005B00002F0CEF861680546A1F580224FEAB2420A
:1005C0000A2A0FD8DFE802F0060606060606494B9F
:1005D0004D4F51006FF0010000EA5140B5FBF0F5BE
:1005E00000E0AD0801F0E0FD41F2030188420DD8C2
:1005F000206842F60151C0F231118D4281682CBF52
:1006000041F4807121F480718160B0BD4BF62140CE
:10061000C0F2BE00854205D82068816821F440718F
:100620008160B0BD47F64100C0F27D10854203D81D
:1006300020680122816808E020684FF28101C0F241
:10064000FA218D42816804D8022262F30921816077
:10065000B0BD41F440718160B0BD2D09C2E76D09A4
:10066000C0E7AD09BEE7ED09BCE72D0ABAE7000017
:1006700070B542F2000204460068C4F202029042E1
:100680000D4613D042F20011C4F2020188420DD08F
:1006900046F20001C5F60201884207D047F68240C3
:1006A00040F6DD51C0F6000006F00EFD681E03287E
:1006B00007D347F6824040F6DE51C0F6000006F050
:1006C00003FD206805F0C8F80646206805F094F898
:1006D00030435CD02068C168890115D5617D01294E
:1006E00012D1217D01290FD10168490609D44DF6A7
:1006F0000141C0F20C0100BF01393ED00268520630
:10070000FAD5012540210160022D0FD005F0A4F893
:1007100018B1206805F090F818B1012D06D1042613
:1007200016E0206805F0CCF8012DF8D0206805F01F
:1007300063F830B1206805F07FF810B9206805F043
:1007400067F80426022D08BF0826032D08BF0C26D3
:1007500001F032FD21688968314218D0054603E076
:1007600020688068304212D001F026FD401B062828
:10077000F6D3206880683042F2D0606D40F01000FF
:100780006065A06D40F00100A065012070BD0020F3
:1007900070BD000000000000B0B50446006805F020
:1007A0004BF80546206805F04BF801464FF0000075
:1007B00085BB002908BFB0BD2068816801F00D012C
:1007C00001291CD104F0C8FF20680321016001F059
:1007D000F3FC21688968C90701D10020B0BD054636
:1007E00004E000BF20688068C00712D001F0E4FC7C
:1007F000401B0328F6D320688068C007F2D0606DE4
:1008000040F010006065A06D40F00100A06501207F
:10081000B0BD0020B0BD000070B50446006805F012
:100820000FF800281CBF002070BD20683F22C8F2CE
:1008300000028168114209D0606D40F010006065CF
:10084000A06D40F00100A065012070BD04F098FF8C
:1008500001F0B2FC42F2000546F20031C4F202059A
:10086000226805F5807605F54073C5F60201B242AF
:1008700008BF1946AA42054608BF1946084604F0B3
:100880009FFF21680A46B14204BF42F20002C4F24F
:100890000202002818BF8A4203D121680868C007F5
:1008A00008D0002070BD00BF21680868C0074FF065
:1008B000000010D1084604F0C3FF10B9206804F00E
:1008C0005FFF01F079FC401B0328EDD3206800682E
:1008D000C007E9D1B0E770BD80B540F2D400C2F2E4
:1008E000004000F0A9FD80BDFEE700000000000010
:1008F0007047000000000000EFF3108072B600BFE8
:10090000FEE7000000000000F0B581B004460020C2
:10091000009042F200032068C4F202039842164697
:100920000F4612D042F20011C4F2020188420CD0EC
:1009300046F20001C5F60201884206D047F6BA40E9
:100940008421C0F6000006F0BFFB40F2FF70864233
:100950000BD00020C4F2FF70864206D047F6BA40A2
:100960008521C0F6000006F0AFFB94F85000012886
:1009700001D1022533E0012084F850002046FFF722
:100980000BFF05460028606D02D040F0100022E009
:1009900041F20211324688433946023060652068D0
:1009A00004F0F6FF4FF60006C2F2C356206804F0CA
:1009B0003BFF60B10098013000900098B042F5D341
:1009C000606D012540F0100020F0020003E0606D32
:1009D000012161F301006065002084F85000284681
:1009E00001B0F0BD000000007047000000000000F2
:1009F0007047000000000000704700000000000089
:100A00007047000000000000704700000000000078
:100A10002DE9F04182B042F200060446C4F202061B
:100A20000068B0420D4607D047F6BA4040F639118B
:100A3000C0F6000006F048FB2868092850D80121BC
:100A400001FA00F040F2EF21084249D02868B8B11D
:100A5000686828B1B0F5004F18BFB0F5404F36D1E7
:100A6000A8684FEA302006280AD30738022807D39F
:100A700047F6BA4040F63E11C0F6000006F024FBEF
:100A800094F85000012803D1022002B0BDE8F081A3
:100A9000012084F850000020019000902068B042AE
:100AA0000AD106F58078404604F0DAFE0746206851
:100AB00004F0D6FE38431CD0606D40F02000606525
:100AC0000120002184F8501002B0BDE8F08147F603
:100AD000BA4040F63D11C0F6000006F0F5FABFE757
:100AE00047F6BA4040F63A11C0F6000006F0ECFABC
:100AF000ACE746F200002168C5F602004145074612
:100B000008BF3746B14208BF0F462A6841F48071DA
:100B1000D7F80833002A23F4404215D042F2001CD3
:100B20006B68C4F2020C614542EA0301C7F808137E
:100B30001BD1304604F088FE0646404604F084FE91
:100B40003043B0B10020BCE742F20013C7F80823DD
:100B5000C4F20203994216D1304604F075FE0546F0
:100B6000404604F071FE28430FE004F06DFE0028BB
:100B7000E8D1D7F8080340F61F7188432968AA68AE
:100B80000843104309E004F05FFE08B1002098E735
:100B9000D7F8080340F61F718843C7F80803002000
:100BA0008FE70000000000002DE9F04F81B00446FF
:100BB0000020009042F2000B2068C4F2020B46F2C3
:100BC000000A58450E46C5F6020A08D042F2001146
:100BD000C4F20201884218BF504540F0028170689B
:100BE000B0F5007F19DAA0F58071182908D8012224
:100BF00002FA01F141F24102C0F2041211421BD18A
:100C0000182800F23E81012101FA00F041F2400172
:100C1000C0F2041108420FD133E1A0F50071182988
:100C200000F22681012202FA01F141F24102C0F2F2
:100C30000412114200F01C81B068082807D347F65F
:100C4000824040F60F31C0F6000006F03DFA002762
:100C5000F06840F2FF71C4F2FF77884218BFB842D3
:100C600040F095803069052807D347F6824040F66A
:100C70001131C0F6000006F027FA94F838007569C3
:100C8000012812D1E06B0130B5FBF0F5206804F0CB
:100C90009BFD40084FF6FF7121FA00F0854216D9FE
:100CA00047F6824040F615310DE0206804F08CFDD7
:100CB00040084FF6FF7121FA00F0854207D947F648
:100CC000824040F62131C0F6000006F0FDF930699F
:100CD00004280BD094F83800012807D147F6824049
:100CE00040F62731C0F6000006F0EEF9F068B84291
:100CF0002AD1206858457DD020680BF58071884244
:100D000000F096802068504540F0B88140F2FF31F5
:100D10003068C2F60021884200F3EA800721C0F65D
:100D20009041884240F383810821C0F69041884277
:100D300000F0A4811021C1F2C001884200F09E8120
:100D40002021C1F2F0418FE1FF213068C2F2801111
:100D5000884225DC0321C0F66001884200F39A80B6
:100D60004FF6FF71CCF6B771884200F30281002183
:100D7000CCF22131884200F081810021CCF2527105
:100D8000884200F07B810021CCF6843128E147F6CF
:100D900082404FF43161C0F6000006F095F961E73A
:100DA00043F6FF71C3F6C021884200F3898040F208
:100DB000FF71C2F63061884200F3E68040F2001114
:100DC000C2F28011884200F0598140F20021C2F243
:100DD000B051884200F0528140F20041C2F6002139
:100DE000FEE047F6824040F60D31C0F6000006F006
:100DF0006BF9F4E640F2FF313068C2F60021884218
:100E000000F390800721C0F69041884240F318819A
:100E10000821C0F6904188423FF46EAF1021C1F224
:100E2000C00188423FF468AF2021C1F2F04178E16F
:100E30001F213068C1F2F041884240F38B8040F2BC
:100E4000FF71C2F63061884240F3D18040F6000164
:100E5000C2F6306188423FF455AF41F20001C3F25F
:100E6000602188423FF44EAF0021C4F68431D2E0C5
:100E7000B0F5407F3FF4E0AE40F2063188423FF4E7
:100E8000DBAE47F6824040F60E31C0F6000006F0B9
:100E90001BF9D1E61F21C1F2F041884200F38580A1
:100EA0000421C0F66001884200F0E8800821C0F605
:100EB0009041884200F0E2801021C1F2C0018FE031
:100EC0004FF6FF71C4F2517188427CDC44F200019C
:100ED000C3F6C021884200F0D18048F20001C3F679
:100EE000F061884200F0CA800021C4F2213177E02D
:100EF00041F6FF71C3F29061884240F3AB8042F249
:100F00000001C3F29061884200F0B88044F2000111
:100F1000C3F6C021884200F0B18048F20001C3F658
:100F2000F061A1E040F6FF71C3F26021884240F316
:100F3000ED8041F20001C3F2602188423FF4DCAE53
:100F40000021C4F2213188423FF4D6AE0021C4F61C
:100F50008431E6E00721C0F69041884252DC02214C
:100F6000C0F2304188423FF4CDAE0421C0F66001AA
:100F700051E00021CCF6B871884218BF01287DD01D
:100F80000221C0F230412BE040F60001C2F6306190
:100F9000884273D041F20001C3F2602188426DD0D3
:100FA00042F20001C3F290611AE02021C1F2F04147
:100FB000884263D04021C1F6201188425ED0802152
:100FC000C1F650510CE00021C4F25271884255D054
:100FD0000021C4F68431884250D00021C4F6B87193
:100FE00088424BD047F6824040F62C3142E0202127
:100FF000C1F2F04188423FF485AE40F20041C2F6B2
:10100000002108E00821C0F6904188423FF47AAE02
:101010001021C1F2C00188423FF474AE47F682400D
:1010200040F63631C0F6000006F04EF86AE60221BE
:10103000C0F23041884221D00421C0F6600113E0A3
:101040000221C0F2304188423FF456AE0421C0F67E
:10105000600166E040F20041C2F6002188420DD0F6
:1010600040F60001C2F63061884207D047F6824060
:1010700040F63C31C0F6000006F026F894F8500027
:10108000012803D1022001B0BDE8F08F20680125BE
:1010900084F8505004F0E0FB28B1606D40F020006F
:1010A0006065012009E1326892FAA2F0B0FA80F39B
:1010B000100308BF930E2068716803F01F0305FA40
:1010C00003F3C5692B43C36104F0D6FB206804F029
:1010D000C3FB0546206804F08FFB284340F0968050
:1010E00020683168B26804F0F7FB41F20000C5F6F1
:1010F0000040006800F07040B0F1805F1DD12068B2
:1011000072690E21C06801EA500323E040F20041F9
:10111000C2F6002188423FF4EFAD40F60001C2F66E
:10112000306188423FF4E8AD47F6824040F6323104
:10113000C0F6000005F0C8FFDEE52068C1687269EE
:10114000C068C9064FEA500002D400F00E0301E067
:1011500000F0080331692068042928D1016E326843
:1011600001F0F841B1EB826F4FEA826103D1026E68
:1011700022F000420266426E02F0F8428A4203D137
:10118000426E22F000424266826E02F0F8428A42CB
:1011900003D1826E22F000428266C26E02F0F842F3
:1011A0008A4233D1C16E21F00041C1662EE002FABD
:1011B00003F3326804F0D8FB707E022807D347F6A9
:1011C000824040F68831C0F6000005F07DFF707E59
:1011D0000138B0FA80F120684A093169D20704F079
:1011E000CFFB307E022807D347F6824040F68C3191
:1011F000C0F6000005F068FF307E0138B0FA80F1DB
:1012000020684A093169D20204F0A2FB206804F088
:1012100017FB08B1002050E020683168F26804F044
:101220006FFBF068B84243D14FF6FF703168C0F2EF
:101230000F004FF0806711EA000C91FAA1F0B0FAAC
:1012400080F2134608BF8B0E20685D1C07EB83639A
:1012500005F01E0E05F01F050127BEF1090F03F072
:10126000F84307FA05F50DD8BCF1000F08BF8A0E48
:10127000511C43EA050201F01F0101EB410142EA62
:10128000015112E0BCF1000F08BF8A0E511C002270
:1012900001F01F01CFF6206201EB410102EB015189
:1012A00045EA0302114341F00071B26804F014FBF7
:1012B0003068B0F1FF3F06DD0020002184F85010B7
:1012C00001B0BDE8F08F0AF5407821680BF5807514
:1012D0000BF540724046A94208BF1046594508BF69
:1012E000104604F065FA216842F2001241F4807160
:1012F000C4F202029142814608D1584604F0A0FA95
:101300000746284604F09CFA384302E0504604F0B1
:1013100097FA00287FF4C1AE5FEA0920316809D44A
:101320000020CCF68430814204D1206850451DD085
:101330000020C2E75FEAC91009D40020CCF2527045
:10134000814204D12068504531D00020B5E75FEAE2
:1013500049204FF00000B0D40022CCF6B872914280
:10136000ABD12068504527D00020A6E749F4000102
:10137000404604F0E5FA40F2000042F66351C2F242
:101380000040C0F23E5100688009A0FB01018809BD
:10139000022101EB40000090009858B100980138FC
:1013A0000090009800284FF00000F7D185E749F041
:1013B000807103E0002080E749F48001404604F09A
:1013C000BFFA002079E7000010B5044600F030FDB8
:1013D000204600F011F840F2CC020146C2F2004271
:1013E000106040F27000C2F2004005F02DFF10BD09
:1013F000704700000000000010B542F200010446F2
:101400000068C4F20201884213D042F20011C4F213
:10141000020188420DD046F20001C5F60201884261
:1014200007D047F6824040F62B11C0F6000005F0C9
:101430004BFE2068006C10BD2DE9F04F81B046F2E4
:10144000003842F200090168C5F60208C4F2020938
:10145000044609F5807B09F5407A40460D685945F8
:1014600008BF504649454F6808BF504604F0A8F9E8
:1014700021680646494513D042F20010C4F202002A
:1014800081420DD046F20000C5F60200814207D02D
:1014900047F6824040F64511C0F6000005F014FE04
:1014A0002069042818BF082807D047F6824040F674
:1014B0004611C0F6000005F007FE3D40A8070CD518
:1014C000606DC00603D4606D40F400606065204626
:1014D000FFF78AFA206802210160680758BF5FEAB7
:1014E000057043D5606DC00603D4606D40F4007094
:1014F0006065206804F0B8F990B32068014658454B
:1015000008BF4946814218BF0946002E08BF014660
:10151000052E08BF0146092E08BF0146C968890487
:101520001ED4016809071BD504F096F940B1606D1F
:1015300040F010006065A06D40F00100A0650FE074
:101540002068416821F00C014160606D20F48070DA
:101550006065606DC00403D4606D40F0010060659B
:101560002046FFF731FF20680C210160A80658BF14
:101570005FEA45604ED5606DC00603D4606D40F4EF
:1015800000506065206804F03BF90746206804F0CD
:101590006BF9216826F001030A46594508BF4A46FF
:1015A0008A4218BF1246002E08BF0A46062B08BF03
:1015B0000A46D26847B3930103D528B312F400500A
:1015C00022D1900208681FD410F040001CD00846B9
:1015D00004F012F940B1606D40F010006065A06D3C
:1015E00040F00100A0650FE02068416821F0600133
:1015F0004160606D20F480506065606DC00503D46B
:10160000606D40F0010060652046FFF7F1F9206849
:101610006021016028060AD4E80514D4A8051FD467
:10162000E8062AD4680546D401B0BDE8F08F606DA5
:1016300040F480306065204600F0CEFA20688021BA
:101640000160E805EAD5606D40F400306065204631
:10165000FFF7D6F920684FF480710160A805DFD547
:10166000606D40F4802060652046FFF7CDF920686A
:101670004FF400710160E806D4D5206B58B12068A2
:101680005EB3584508BFD046484508BFD0464046DF
:1016900004F092F850B1606D40F480606065A06D18
:1016A00040F00200A0652046FFF7A2FE206810214E
:1016B00001606805B8D52068616D41F480416165BD
:1016C000A16D41F00801A1654FF4806101602046E1
:1016D000FFF792F901B0BDE8F08FC06800F0030099
:1016E0000028D8D1E2E70000F0B581B00446002818
:1016F0004FF0000000902BD042F200012068C4F2AD
:101700000201884213D042F20011C4F20201884261
:101710000DD046F20001C5F60201884207D047F617
:10172000824040F2A711C0F6000005F0CDFC6068D1
:10173000B0F5801F0EDBB0F5001F18DAB0F5C01F42
:1017400028DAB0F5801F3BD0B0F5A01F38D02FE0CD
:10175000012533E2B0F5403F13DBB0F5002F1EDA70
:10176000B0F5403F2CD0B0F5802F29D020E0B0F567
:10177000201F19DAB0F5001F22D0B0F5101F1FD0BE
:1017800016E0002818BFB0F5803F19D0B0F5003F33
:1017900016D00DE014D0B0F5E01F11D008E00FD046
:1017A000B0F5402F0CD003E00AD0B0F5301F07D0C1
:1017B00047F682404FF4D471C0F6000005F084FC77
:1017C000A0684FEAB000072807D347F6824040F2EE
:1017D000A911C0F6000005F077FCE068022807D3E5
:1017E00047F682404FF4D571C0F6000005F06CFC5E
:1017F000607D022807D347F6824040F2AB11C0F665
:10180000000005F061FCA06A4FEAB020042807D36D
:1018100047F682404FF4D671C0F6000005F054FC44
:10182000606A68B1A0F580604FEA7010152807D390
:1018300047F6824040F2AD11C0F6000005F044FCCE
:10184000E06A042807D347F682404FF4D771C0F608
:10185000000005F039FC2069042818BF082840F072
:101860008681206B40F48050B0F5805F07D047F64A
:1018700082404FF4D871C0F6000005F025FC207DB1
:10188000022807D347F6824040F2B111C0F60000AB
:1018900005F01AFC94F83800022807D347F6824076
:1018A0004FF4D971C0F6000005F00EFCE06828B3D3
:1018B000A0690138102807D347F682404FF4DB7146
:1018C000C0F6000005F000FC207F022807D347F691
:1018D000824040F2B711C0F6000005F0F5FB207F12
:1018E00001280BD1206A0138082807D347F6824027
:1018F00040F2BB11C0F6000005F0E6FB207F012896
:101900000AD1607D012807D147F682404FF4E0718B
:10191000C0F6000005F0D8FB606D30B9204600F03D
:101920005FF90020A06584F85000206803F080FF74
:1019300010B1206803F01CFF206803F089FF28B174
:10194000206803F085FFD0B1002521E0206803F076
:1019500023FF40F2000042F66351C2F20040C0F2A1
:101960003E5100688009A0FB0101012000EB9110AD
:10197000009000980028E3D000980138F8E7606DE7
:10198000012540F010006065A06D40F00100A065E9
:10199000206803F061FF616D01F010010843606D84
:1019A00003D040F01000012507E120F481700230DF
:1019B0006065206803F044FF58BB206842F20011C4
:1019C00040F48070C4F2020142F200068842C4F280
:1019D000020640F0F680304603F032FF074606F577
:1019E000807003F02DFF384398B906F5807006F536
:1019F0004072216846F20003C5F602038142104698
:101A000018BF03F54070B142616808BF104603F08B
:101A10008FFF00F0C9FB41F2040188420CD3A0689B
:101A2000102809D1607D216B227F41EA403040EAD5
:101A3000024040F01C0108E0607D216B227F41EAFA
:101A40004030A168084340EA0241207F012806D1C6
:101A5000206A0022CFF6FE7202EB40400143606A2A
:101A600028B100F47870A26A084340EA02012068B5
:101A70004CF20303CFF6F073C2681A401143C16001
:101A800003F0EAFE0646206803F0B6FE304340F05D
:101A90008580217D2068E26A44F20307C36842EA38
:101AA000813123EA07021143C16094F838100129FB
:101AB00066D1E06B0138B0F5806F07D347F68240FE
:101AC0004FF43071C0F6000005F0FEFA206C4FEACA
:101AD00070100C2807D347F6824040F2C221C0F6AE
:101AE000000005F0F1FA606C40F40070B0F5007F82
:101AF00007D047F6824040F2C321C0F6000005F04F
:101B0000E3FAA06C40F2014140F48060884207D0C3
:101B100047F682404FF43171C0F6000005F0D4FA68
:101B2000606A08B1A06A48B9606C38B147F6824073
:101B300040F2CA21C0F6000005F0C6FA206804F1A0
:101B40003C0C4FF61E03A76C9CE806100669CFF606
:101B5000004333400026CFF6FF761A4306EB0141DF
:101B6000114341EA0C01394341F001010BE047F612
:101B7000824040F2AF11C0F6000005F0A5FA70E611
:101B8000016921F0010101612068616B026922F0A5
:101B90007042114301612046FEF7DEFC2068E168D7
:101BA0000129026B22F00F0102D1A269013A11430F
:101BB00001630121606D61F301006065284601B099
:101BC000F0BD46F20000C5F6020003F039FE002821
:101BD0007FF41FAF09E7000070470000000000001D
:101BE000B0B5B8B0044602A8C0210025CDE93655ED
:101BF000CDE934553395FEF74FFC42F200012068E1
:101C0000C4F20201884201D038B0B0BD4FF40020C8
:101C10000290202004908120059002200890CDE9B8
:101C2000060040200395CDE9090502A80B952B95E8
:101C300000F03AFF08B1FEF75FFE44F2D840C5F667
:101C40000200016841F020010160016801F02001FB
:101C500001910199816841F004018160806833A994
:101C600000F004000190019810203390032034907C
:101C70000020359040F60000C5F6020000F018F98B
:101C800012200321002200F02FFB122000F01CFB89
:101C900038B0B0BD000000002DE9F04142F200076D
:101CA0000446C4F20207016846F2003007F5807668
:101CB00007F54072C5F60200B14208BF1046B942AE
:101CC00008BF104603F07CFD21688046B94213D05E
:101CD00042F20010C4F2020081420DD046F2000030
:101CE000C5F60200814207D047F6824040F2637198
:101CF000C0F6000005F0E8F9206803F0ADFD18B962
:101D000094F85000012802D10220BDE8F0810120A2
:101D100084F850002046FEF77FFD054628B10020DC
:101D200084F850002846BDE8F0812068616D40F6D7
:101D30000172B04221EA020118BF0746B8F1000F54
:101D400001F58071616518BF874203D1616D21F48F
:101D500080116165616D0022C9044FF0000144BF2C
:101D6000A26D22F00602A2651C22026084F85010C7
:101D7000416821F01C01416021690B460829226B52
:101D800018BF04234668002A46EA0302426003D1D2
:101D9000426842F010024260874209D0B8F1090F50
:101DA00023D8012240F2212302FA08F21A421CD061
:101DB000C268920114D5626D012363F30D3262652E
:101DC0006FF04002082908BF6FF020024FF0200199
:101DD000436808BF40211A40426042681143416095
:101DE00003F062FD2846BDE8F081626D42F4801286
:101DF0006265FA68920195D5626D012363F30D3235
:101E000062650829416806D121F0200141604168DE
:101E100041F0400105E021F040014160416841F09E
:101E2000200141602846BDE8F0810000000000006C
:101E300010B542F2000104460068C4F20201884273
:101E400013D042F20011C4F2020188420DD046F2D2
:101E50000001C5F60201884207D047F682404FF4E0
:101E60000161C0F6000005F02FF994F85000012838
:101E700001D1022010BD012084F85000032120462A
:101E8000FEF7F6FB70B92068416821F01C01416043
:101E90002046FEF781FC28B9616D41F201129143A1
:101EA00001316165002184F8501010BD0000000070
:101EB0002DE9F04F83B0044600F1264000F1FF7099
:101EC0000D464FEAB02001900B2806D347F6685024
:101ED000B321C0F6000005F0F7F828680021B1EB47
:101EE000104F01D180B230B947F66850B421C0F626
:101EF000000005F0E9F86868B0F5881F0ADA1228D2
:101F00001CD8012101FA00F00F21C0F2060108429D
:101F10001BD113E0B0F5081F09DAB0F5881F18BF10
:101F2000B0F5901F11D0B0F5041F0ED006E018BF19
:101F3000B0F5441F09D0B0F5481F06D047F66850E9
:101F4000B521C0F6000005F0BFF82868002800F0B1
:101F5000ED8042F200410A22C5F602014FF000086E
:101F60008C424FF0030C08BF09224FF0000B4FF0DA
:101F7000010A00920BE000BF28680BF1040B30FA55
:101F80000AF10AF1010A08F1020800F0CF80AAF173
:101F90000107012101FA07F610EA0609ECD068688A
:101FA00000F00300013801281CD8E868042808D391
:101FB00047F66850C421C0F6000005F085F84FF0E0
:101FC000030CA0680CFA08F18843E9686A6801FA12
:101FD00008F10843A060C2F300116068B043B94043
:101FE00008436060686800F00300032814D0A86804
:101FF000032808D347F66850D621C0F6000005F044
:1020000063F84FF0030CE0680CFA08F1AA68884303
:1020100002FA08F10843E060686800F00300022853
:1020200027D101980B2808D347F66850E321C0F662
:10203000000005F049F84FF0030C2869102808D378
:1020400047F66850E421C0F6000005F03DF84FF077
:10205000030C6FF003000BF01C0200EA57000F2383
:1020600020449340016A2E69994306FA02F2114313
:10207000016220680CFA08F16A68884302F00301E3
:1020800012F4403F01FA08F140EA010020603FF4F9
:1020900073AF44F2F44140F20846C5F60201C5F6BA
:1020A0000006086840F00200086008680BF00C01A8
:1020B00000F002000290029827F00300019B009AB2
:1020C000092B4FF00F0738BF1A4683598F40BB4387
:1020D00002FA01F14FF0B04719438151386869683D
:1020E00040EA0902CB0258BF20EA09028B023A609B
:1020F00040F20407C5F60007386840EA090258BFF5
:1021000020EA09028B033A60D7F8800040EA09020E
:1021100058BF20EA0902C903C7F88020F86F40EAD7
:10212000090258BF20EA0902FA6725E703B0BDE8B3
:10213000F08F000000000000B0B50C46054639B92C
:1021400047F668504FF4C571C0F6000004F0BCFFBC
:102150002869204018BF0120B0BD00000000000029
:1021600070B50C461646054621B16EB1012E0ED152
:10217000AC6170BD47F668504FF4D571C0F60000F1
:1021800004F0A2FF002EF1D12404AC6170BD47F62B
:10219000685040F2AB11C0F6000004F095FFAC614E
:1021A00070BD00000000000041F20000C5F60040D4
:1021B0000068000C7047000040F6F810C2F20040C2
:1021C000006870470000000040F2080040F6F81177
:1021D000C2F20040C2F2004100780A681044086070
:1021E000704700000000000080B5032000F0A0F858
:1021F00001F082FE44F2184147F60E43C5F6020193
:10220000C0F600030A68096801F00F01C2F3032257
:10221000595C9A5C01F01F0102F01F02D04040F2AD
:102220000402C2F2004220FA01F1116040F2000102
:10223000C2F200410860002000F00AF800281CBF2C
:10224000012080BD00F030F8002080BD00000000BB
:10225000B0B540F20801C2F20041097801B304466A
:1022600040F20000C2F200404FF47A72B2FBF1F18A
:102270000068B0FBF1F002F0BBFB0F2C4FF0010542
:102280000CD858B94FF0FF3000222146002500F04D
:102290002BF840F20C00C2F2004004602846B0BDAA
:1022A0000120B0BD0000000081B044F2F440C5F64A
:1022B0000200016841F002010160006800F00200C4
:1022C0000090009801B0704710B50446B0F1FF3F90
:1022D00006DC47F6DC50BD21C0F6000004F0F4FE39
:1022E000204604F0B1FE10BD70B51546102A0E460A
:1022F000044606D347F6DC50A921C0F6000004F0DE
:10230000E3FE102E06D347F6DC50AA21C0F60000EB
:1023100004F0DAFE04F0A8FE31462A4603F00CFD74
:102320000146204604F0A8FE70BD00000000000039
:1023300010B504460338052806D347F6DC50912132
:10234000C0F6000004F0C0FE204604F0A9FE10BD57
:10235000B0B504460138022807D347F6A1504FF420
:102360009F71C0F6000004F0AFFE44F60C05C5F600
:10237000020528684007286805D400F00700001B04
:1023800018BF0120B0BD20F0070020432860FFF7F0
:1023900013FF044655F8080C800407D4FFF70CFF20
:1023A000001BB0F57A7FF5D90120B0BD0020B0BD8B
:1023B00080B501F051FD44F2204147F60E42C5F6CA
:1023C0000201C0F600020968C1F30211515C01F07C
:1023D0001F01C84080BD000080B544F2304EC5F6F4
:1023E000020E5EF8083C5EF8081CC1F3051C5EF89E
:1023F000041CBCF1000FDEF8042016D0C2F3CC029E
:1024000001F00101514303F00303022B00EE101A07
:10241000B8EE400A0ED0012B0FD01BB95EF8301C6D
:1024200089060DD49FED341A18E000218160C0E9BF
:10243000001180BD9FED2F1A10E09FED2D1A0DE0C9
:102440005EF8301C49F20002C0F2D032C1F3C10183
:1024500022FA01F101EE101AB8EE411ADEF800106E
:102460009FED263A6FF35F2102EE101ADEF800109E
:10247000C1F34621B8EE422A00EE032A00EE10CA4C
:10248000B7EE003AB8EE400A81EE000A32EE031AC7
:1024900002EE101AB8EE422A20EE010A32EE031ABA
:1024A00080EE011ABCEEC11A80ED001ADEF80010B1
:1024B000C1F3064101EE101AB8EE411A31EE031ACB
:1024C00080EE011ABCEEC11A80ED011ADEF8001090
:1024D000C1F3066101EE101AB8EE411A31EE031A8B
:1024E00080EE010ABCEEC00A10EE101A816080BDB9
:1024F0000024744A20BCBE4B0024744C00000039F8
:1025000080B544F2384EC5F6020E5EF8103C5EF817
:10251000101CC1F3053C5EF80C1CBCF1000FDEF88A
:10252000042014D0C1F30011C2F3CC02514300EED9
:10253000101A03F003010229B8EE400A0CD071B959
:102540005EF8381C89060DD49FED341A18E000217E
:102550008160C0E9001180BD9FED2F1A10E09FED52
:102560002D1A0DE05EF8381C49F20002C0F2D0329C
:10257000C1F3C10122FA01F101EE101AB8EE411ABD
:10258000DEF800109FED263A6FF35F2102EE101A7D
:10259000DEF80010C1F34621B8EE422A00EE032A0D
:1025A00000EE10CAB7EE003AB8EE400A81EE000A1B
:1025B00032EE031A02EE101AB8EE422A20EE010A99
:1025C00032EE031A80EE011ABCEEC11A80ED001A39
:1025D000DEF80010C1F3064101EE101AB8EE411A00
:1025E00031EE031A80EE011ABCEEC11A80ED011A19
:1025F000DEF80010C1F3066101EE101AB8EE411AC0
:1026000031EE031A80EE010ABCEEC00A10EE101A79
:10261000816080BD0024744A20BCBE4B0024744CF1
:10262000000000390000000080B544F2404EC5F6BD
:10263000020E5EF8183C5EF8181CC1F3055C5EF8EB
:10264000141CBCF1000FDEF8042014D0C1F30021EB
:10265000C2F3CC02514300EE101A03F00301022929
:10266000B8EE400A0CD071B95EF8401C89060DD452
:102670009FED341A18E000218160C0E9001180BD8F
:102680009FED2F1A10E09FED2D1A0DE05EF8401C13
:1026900049F20002C0F2D032C1F3C10122FA01F1C5
:1026A00001EE101AB8EE411ADEF800109FED263A3E
:1026B0006FF35F2102EE101ADEF80010C1F346211D
:1026C000B8EE422A00EE032A00EE10CAB7EE003A36
:1026D000B8EE400A81EE000A32EE031A02EE101A3A
:1026E000B8EE422A20EE010A32EE031A80EE011AF9
:1026F000BCEEC11A80ED001ADEF80010C1F30641ED
:1027000001EE101AB8EE411A31EE031A80EE011AEA
:10271000BCEEC11A80ED011ADEF80010C1F30661AB
:1027200001EE101AB8EE411A31EE031A80EE010ADA
:10273000BCEEC00A10EE101A816080BD0024744AFD
:1027400020BCBE4B0024744C000000390000000087
:1027500080B584B0024641F6FF7300209B1A70EBEF
:10276000010329DB40F2FF339B1A70EB01034FDAC0
:1027700082F480630B4300F0AD8082F400630B436E
:1027800000F0BB8082F48052114340F07A8144F221
:102790000041C5F60201086DC0F30232042A00F2BE
:1027A0005D8148F20000C0F2BB00DFE812F0B90022
:1027B000E000E7006A01F00047F6FF739B1A70EB38
:1027C000010343DA82F400430B4300F0AD8082F44E
:1027D00080330B4300F0C08082F40022114340F0AC
:1027E000508144F20040C5F60200816D01F4403191
:1027F000B1F5003F00F01A81B1F5803F00F0228171
:10280000002940F02B810068000140F12781B1E0F0
:1028100082F480730B4335D082F40072114340F090
:10282000308144F20041C5F60201086DC0F3821206
:10283000042A00F2138148F20000C0F2BB00DFE876
:1028400012F06F0096009D002001A60082F4005354
:102850000B432CD082F48042114340F0128144F2A9
:102860000040C5F60200816DC1F30271052900F236
:10287000F580DFE801F003ACB3BAC86AFFF798FD52
:1028800004B080BD44F20041C5F60201086D00F0BD
:102890000702042A00F2E28048F20000C0F2BB0006
:1028A000DFE812F03E0065006C00EF00750044F2B6
:1028B0000040C5F60200016DC1F30241052900F296
:1028C000CD80DFE801F003848B92A04201F0ECFAA6
:1028D00004B080BD44F20041C5F60201886DC0F32A
:1028E0004252042A00F2BA8048F20000C0F2BB0053
:1028F000DFE802F0163D44C74D0044F20041C5F642
:102900000201886DC0F30262042A00F2A78048F237
:102910000000C0F2BB00DFE802F0032A31B43A0045
:10292000086880017CD499E044F20040C5F60200BA
:10293000016D01F04051B1F1005F00F08C80B1F108
:10294000805F6AD0002940F08980006847F6400126
:102950008003C0F27D115CE044F20040C5F6020045
:10296000C16C0068C9032CD4800177D558E0086891
:10297000000173D501A8FFF7C3FD05E008688000DA
:102980006CD501A8FFF750FE019804B080BDC86C5B
:102990000B6810F04052086802D113F0040328D1EC
:1029A000B2F1805F02D110F4807060D1086810F439
:1029B00000301CBF47F64000C0F27D10B2F1005F4E
:1029C0006BE000014AD501A8FFF79AFD40E00068DE
:1029D000000143D501A8FFF793FD24E000688000C3
:1029E0003CD501A8FFF720FE1DE00168490735D559
:1029F0000068C0F3C10049F20001C0F2D03121FAF1
:102A000000F004B080BD006840F60011C005C0F2BF
:102A10003D0101EAE07004B080BD006880011DD571
:102A200001A8FFF7D9FC029804B080BDC16C03680F
:102A300011F04051026814D113F0040311D0C2F315
:102A4000C100D8E70068800008D501A8FFF7ECFDB9
:102A5000039804B080BD006800010ED4002004B0CB
:102A600080BDB1F1805F0ED112F480720BD040F6C0
:102A70000010C0F23D0004B080BD01A8FFF740FD8A
:102A8000029804B080BD006810F400301CBF47F607
:102A90004000C0F27D10B1F1005F18BF002004B00B
:102AA00080BD0000000000002DE9F04381B0044625
:102AB000C07844F22C490007C5F6020901D400256C
:102AC0002EE0A06E4FEA305003280DD80025DFE835
:102AD00000F0020E1714D9F80000002540F4003071
:102AE000C9F8000055B913E001253DB910E004F123
:102AF0000800022103F054F905464DB1A84611E043
:102B000004F12800022103F03FFA0546002DF5D11B
:102B1000D9F82400A16E20F440100843C9F824001D
:102B20004FF000086078C00730D0A06D042807D8A7
:102B3000DFE800F00A131C030300FDB1A84625E0FE
:102B40000125002DFAD119E0D9F8000040F4003039
:102B5000C9F80000002DF1D110E004F108000021B7
:102B600003F01EF90546002DE8D107E004F1280026
:102B7000002103F009FA0546002DDFD1D9F8240021
:102B8000A16D20F007000843C9F824006078800791
:102B900032D5E06D4FEAB010042807D8DFE800F026
:102BA0000A131C030300FDB1A84625E00125002DF2
:102BB000FAD119E0D9F8000040F40030C9F800005B
:102BC000002DF1D110E004F10800002103F0E8F835
:102BD0000546002DE8D107E004F12800002103F0AC
:102BE000D3F90546002DDFD1D9F82400E16D20F49A
:102BF000E0700843C9F824006078400734D5D4F861
:102C0000A8004FEA7050042807D8DFE800F00A1344
:102C10001C030300FDB1A84626E00125002DFAD1D2
:102C200019E0D9F8000040F40030C9F80000002D88
:102C3000F1D110E004F10800002103F0B1F80546DD
:102C4000002DE8D107E004F12800002103F09CF9F1
:102C50000546002DDFD1D9F82C00D4F8A81020F4B7
:102C600060000843C9F82C006078000734D5D4F818
:102C7000AC004FEA3060042807D8DFE800F00A1300
:102C80001C030300FDB1A84626E00125002DFAD162
:102C900019E0D9F8000040F40030C9F80000002D18
:102CA000F1D110E004F10800002103F079F80546A5
:102CB000002DE8D107E004F12800002103F064F9B9
:102CC0000546002DDFD1D9F82C00D4F8AC1020F047
:102CD000E0600843C9F82C00E078800728D5E06C54
:102CE0004FEA3010032806D8DFE800F0020912028C
:102CF000B5B1A8461CE00125002DFAD110E0D9F8A5
:102D0000000040F40030C9F80000002DF1D107E0C8
:102D100004F10800022103F043F80546002DE8D134
:102D2000D9F82000E16C20F030000843C9F82000F9
:102D30006078C00632D5206E4FEA3030042807D8BC
:102D4000DFE800F00A131C030300FDB1A84625E0EC
:102D50000125002DFAD119E0D9F8000040F4003027
:102D6000C9F80000002DF1D110E004F108000021A5
:102D700003F016F80546002DE8D107E004F128001D
:102D8000002103F001F90546002DDFD1D9F8240018
:102D9000216E20F4E0400843C9F8240060788006E2
:102DA00026D5606E4FEA3040052807D8DFE800F0EE
:102DB000030A100303039DB1A84619E00125002D65
:102DC000FAD10DE004F10800012102F0E9FF04E06E
:102DD00004F12800012103F0D7F80546002DEBD1BE
:102DE000D9F82400616E20F4E0200843C9F82400DB
:102DF0006078400628D5D4F8B0004FEA3070052836
:102E000007D8DFE800F0030A100303039DB1A846CA
:102E10001AE00125002DFAD10DE004F1080001218E
:102E200002F0BEFF04E004F12800012103F0ACF839
:102E30000546002DEBD1D9F82C00D4F8B01020F0C5
:102E4000E0400843C9F82C006078000620D5206FC8
:102E5000D8B1B0F1005F12D0B0F1805F25D1D9F8C0
:102E6000000040F40030C9F8000085B9D9F824000A
:102E7000216F20F040500843C9F8240008E004F115
:102E80000800012102F08CFF0546002DEED0A84677
:102E9000E078C0072AD0A06C03280AD8DFE800F049
:102EA000020D1602D5B1A84620E00125002DEED175
:102EB000DCE70125002DF6D110E0D9F8000040F440
:102EC0000030C9F80000002DEDD107E004F1080042
:102ED000022102F065FF0546002DE4D1D9F820005B
:102EE000A16C20F003000843C9F82000A078400638
:102EF00040F14E8240F2FF21D4F8B400C0F202014A
:102F000088421ADC40F2FF21C0F2010188423ADC1B
:102F1000B0F5034F75DAB0F5864F80F2D080B0F58A
:102F20000C5F80F25681B0F5807F00F0EB81B0F548
:102F3000007F00F0E78100F042BD40F2FF21C0F2C7
:102F4000030188423FDC48F2FF21C0F202018842BF
:102F500069DC44F2FF21C0F20201884200F3BD8027
:102F600042F2FF21C0F20201884200F33A8140F2AE
:102F70000031C0F20201884200F0C48141F2003108
:102F8000C0F20201BBE148F2FF21C0F20101884218
:102F900063DC44F2FF21C0F20101884200F3B080FB
:102FA00042F2FF21C0F20101884200F3268140F283
:102FB0000031C0F20101884200F0A48141F20031E9
:102FC000C0F201019BE148F2FF21C0F203018842F7
:102FD0005DDC44F2FF21C0F20301884200F3A380CC
:102FE00042F2FF21C0F20301884200F3118140F256
:102FF0000031C0F20301884200F0848141F20031C7
:103000007BE1B0F5434F80F29F80B0F5234F80F213
:103010000881B0F5034F00F07581B0F5134F00F053
:10302000718100F0CCBC4CF2FF21C0F20201884259
:1030300000F398804AF2FF21C0F20201884200F3B7
:10304000F68048F20031C0F20201884200F05A8155
:1030500049F20031C0F2020151E14CF2FF21C0F20D
:103060000101884200F391804AF2FF21C0F2010180
:10307000884200F3E78048F20031C0F20101884243
:1030800000F0408149F20031C0F2010137E14CF219
:10309000FF21C0F20301884200F38A804AF2FF2137
:1030A000C0F20301884200F3D88048F20031C0F238
:1030B0000301884200F0268149F200311DE1B0F59C
:1030C000C64F80F2D380B0F5864F00F01B81B0F57B
:1030D000A64F00F0178100F072BC46F2FF21C0F24B
:1030E0000201884200F3C78044F20031C0F20201BD
:1030F000884200F0078145F20031C0F20201FEE093
:1031000046F2FF21C0F20101884200F3BF8044F281
:103110000031C0F20101884200F0F48045F2003134
:10312000C0F20101EBE046F2FF21C0F20301884248
:1031300000F3B78044F20031C0F20301884200F08E
:10314000E18045F20031D8E0B0F5634F80F2B28003
:10315000B0F5434F00F0D680B0F5534F00F0D28069
:1031600000F02DBC4EF2FF21C0F20201884200F3B4
:10317000A6804CF20031C0F20201884200F0C28009
:103180004DF20031C0F20201B9E04EF2FF21C0F26F
:103190000101884200F39E804CF20031C0F201012F
:1031A000884200F0AF804DF20031C0F20101A6E08C
:1031B0004EF2FF21C0F20301884200F396804CF2E8
:1031C0000031C0F20301884200F09C804DF20031D2
:1031D00093E000F09780B0F54C5F00F0938000F032
:1031E000EEBB42F20031C0F20201884200F08A8058
:1031F00043F20031C0F2020181E042F20031C0F23C
:10320000010188427ED043F20031C0F2010176E034
:1032100042F20031C0F20301884273D043F2003120
:103220006BE06FD0B0F5334F6CD000F0C8BB4AF202
:103230000031C0F20201884264D04BF20031C0F28A
:1032400002015CE04AF20031C0F20101884259D02B
:103250004BF20031C0F2010151E04AF20031C0F2FC
:10326000030188424ED04BF2003146E04AD0B0F51F
:10327000E64F47D0A3E346F20031C0F20201884294
:1032800040D047F20031C0F2020138E046F200318E
:10329000C0F20101884235D047F20031C0F201018D
:1032A0002DE046F20031C0F2030188422AD047F2F5
:1032B000003122E026D0B0F5734F23D07FE34EF2E9
:1032C0000031C0F2020188421CD04FF20031C0F23E
:1032D000020114E04EF20031C0F20101884211D027
:1032E0004FF20031C0F2010109E04EF20031C0F2AC
:1032F0000301884206D04FF20031C0F20301884238
:1033000040F05D83D9F8D40340F48070C9F8D40349
:10331000FEF752FF064600BFD9F8D403C00505D416
:10332000FEF74AFF801B6528F6D303257DBBD9F83D
:103330004410D4F8B400414011F4407F11D0D9F8C2
:103340004410D9F8442042F48032C9F84420D9F816
:10335000442021F4407122F48032C9F84420C9F895
:103360004410B0F5807F0FD1FEF726FF064641F2EC
:10337000893700BFD9F84400800705D4FEF71CFF49
:10338000801BB842F6D30325002D00F0F382A84637
:103390002078C00726D0E06F4FEAF000052807D854
:1033A000DFE800F0030A100303039DB1A84619E00B
:1033B0000125002DFAD10DE004F10800012102F0F1
:1033C000EFFC04E004F12800012102F0DDFD0546D8
:1033D000002DEBD1D9F82800E16F20F03800084328
:1033E000C9F828002078800724D5A06F052807D8C1
:1033F000DFE800F0030A100303039DB1A84619E0BB
:103400000125002DFAD10DE004F10800012102F0A0
:10341000C7FC04E004F12800012102F0B5FD0546D7
:10342000002DEBD1D9F82800A16F20F00700084348
:10343000C9F828002078400726D5D4F8940005283C
:1034400007D8DFE800F0030A100303039DB1A84684
:103450001AE00125002DFAD10DE004F10800012148
:1034600002F09EFC04E004F12800012102F08CFD32
:103470000546002DEBD1D9F82C00D4F8941020F09B
:1034800007000843C9F82C002078800628D5D4F816
:1034900090004FEA3070052807D8DFE800F0030AF3
:1034A000100303039DB1A8461AE00125002DFAD1AF
:1034B0000DE004F10800002102F072FC04E004F1C8
:1034C0002800022102F060FD0546002DEBD1D9F85D
:1034D0002800D4F8901020F0E0400843C9F82800F4
:1034E0002078400628D5D4F89C004FEAB020052863
:1034F00007D8DFE800F0030A100303039DB1A846D4
:103500001AE00125002DFAD10DE004F10800002198
:1035100002F046FC04E004F12800022102F034FD30
:103520000546002DEBD1D9F82C00D4F89C1020F4DE
:10353000E0500843C9F82C002078000628D5D4F8BC
:10354000A0004FEA7030052807D8DFE800F0030A32
:10355000100303039DB1A8461AE00125002DFAD1FE
:103560000DE004F10800002102F01AFC04E004F16F
:103570002800022102F008FD0546002DEBD1D9F804
:103580002C00D4F8A01020F460400843C9F82C00A7
:103590002078000724D5D4F884004FEA303004287E
:1035A00007D347F62D5040F20D51C0F6000003F04E
:1035B0008BFDD4F88400B0F5805F08D104F12800B9
:1035C000022102F0E1FC002818BF4FF00108D9F8F1
:1035D0002800D4F8841020F440500843C9F828008B
:1035E0002078C00624D5D4F898004FEA302004286B
:1035F00007D347F62D504FF4A461C0F6000003F046
:1036000063FDD4F89800B0F5807F08D104F128005C
:10361000022102F0B9FC002818BF4FF00108D9F8C8
:103620002C00D4F8981020F440700843C9F82C00FE
:10363000A078000722D5D4F8A400B0F5003F1AD036
:10364000B0F5803F11D0C8BB04F10800002102F0A2
:10365000A7FB05468DB9D9F82C00D4F8A41020F4A6
:1036600040300843C9F82C0008E004F1280002218A
:1036700002F08AFC0546002DEDD0A846A078400750
:1036800029D5D4F88800B0F5401F21D0B0F5001F2F
:1036900018D0B0F5801F40F05A81D9F8000040F4EE
:1036A0000030C9F80000ADB9D9F82800D4F8881066
:1036B00020F440100843C9F828000CE00125002D33
:1036C000DBD1C8E704F12800012102F05DFC0546CA
:1036D000002DE9D0A846A078C0072ED0206D40F478
:1036E0008030B0F5803F07D047F62D5040F286512C
:1036F000C0F6000003F0E8FC206DB0F5803F10D06C
:10370000B8B9D9F8000040F40030C9F800009DB9FC
:10371000D9F82000216D20F480300843C9F820003A
:103720000BE004F10800022102F03AFB05461DB946
:10373000EEE70125002DEBD0A846E078800608D5FD
:1037400004F12800022102F01FFC002818BF4FF0EE
:103750000108206881031BD5D4F880106FF00102A6
:1037600002EB3122022A0BD34FEA312242B1012A65
:1037700040F0F280D9F8002042F40032C9F800206D
:103780003DB9D9F8282022F440721143C9F8281015
:103790004546C00215D5606F40F00040B0F1004FC3
:1037A00007D047F62D5040F2E551C0F6000003F077
:1037B0008BFCD9F82400616F20F000400843C9F861
:1037C0002400E078C00617D5D4F8B80040F4804053
:1037D000B0F5804F07D047F62D5040F2EF51C0F6BC
:1037E000000003F071FC59F81C0CD4F8B81020F458
:1037F0008040084349F81C0CA078800615D5E06E7F
:1038000040F08070B0F1807F07D047F62D5040F235
:10381000F951C0F6000003F057FCD9F82400E16E1E
:1038200020F080700843C9F82400E07840061BD5DA
:10383000D4F8BC0040F40040B0F5004F07D047F684
:103840002D5040F20F61C0F6000003F03DFC59F826
:103850001C0C20F4004049F81C0CD4F8BC0059F8AA
:103860001C1C084349F81C0C2068B0F1FF3F10DC19
:10387000606D30B1B0F1805F18BFB0F1005F40F013
:103880009580D9F82000616D20F040500843C9F8B8
:103890002000A078000611D5D4F88C0028B1B0F52E
:1038A000800F18BFB0F5000F5BD1D9F82800D4F80D
:1038B0008C1020F440000843C9F828002079C00784
:1038C00007D004F10800002102F06AFA002818BFAE
:1038D00005462079800707D504F10800012102F090
:1038E0005FFA002818BF05462079400707D504F184
:1038F0000800022102F054FA002818BF054620797A
:10390000000707D504F12800002102F03DFB002844
:1039100018BF05462079C00607D504F1280001210B
:1039200002F032FB002818BF05462079800607D533
:1039300004F12800022102F027FB002818BF01250E
:10394000002D18BF0125284601B0BDE8F0830125F0
:10395000002D7FF4BFAEA7E60125002D7FF419AF3F
:103960000FE747F62D5040F22361C0F6000003F048
:10397000ABFB9AE74FF6CF73D4F8B40059F81C2C80
:10398000C0F2FF0300F4407122F47C5203EA1013EA
:10399000B1F5407F08BF1A436FF31F3049F81C2C64
:1039A000D9F844100843C9F84400F1E447F62D5013
:1039B00040F21961C0F6000003F086FB61E747F6AC
:1039C0002D5040F27D31C0F6000003F07DFBFFF783
:1039D00099BC0000000000002DE9F04381B00028F0
:1039E00000F0E3810446006801380D463F2807D304
:1039F00047F6F54040F2A731C0F6000003F064FB43
:103A0000102D07D347F6F5404FF46A71C0F6000059
:103A100003F05AFB42F20008C5F20028D8F8000073
:103A200000F00F00A8420DD2D8F8000020F00F00DF
:103A30002843C8F80000D8F8000000F00F00A842A2
:103A400040F0B381207844F21849C5F602094007D6
:103A50001FD52069D9F8001001F07001884218D9EB
:103A60006FF0030101EB301104290AD34FEA301043
:103A700038B147F6F5404FF47171C0F6000003F01D
:103A800023FBD9F80000216920F070000843C9F831
:103A90000000207800071FD56069D9F8041001F0F4
:103AA0007001884218D96FF0030101EB301104292D
:103AB0000AD34FEA301038B147F6F54040F2D6311C
:103AC000C0F6000003F000FBD9F80400616920F0A3
:103AD00070000843C9F804002078C0061FD5A0690B
:103AE000D9F8041001F4E061884218D96FF003019D
:103AF00001EB302104290AD34FEA302038B147F6D0
:103B0000F54040F2E731C0F6000003F0DDFAD9F8E5
:103B10000400A16920F4E0600843C9F8040020789B
:103B200080061FD5E069D9F8081001F070018842BD
:103B300018D96FF0030101EB301104290AD34FEAC1
:103B4000301038B147F6F54040F2F931C0F60000C8
:103B500003F0BAFAD9F80800E16920F070000843D0
:103B6000C9F808002078800713D5E068D9F800105C
:103B700001F00F0188420CD9A0F10801082980F05A
:103B80005281D9F80000E16820F00F000843C9F81D
:103B900000002078C00740F0E2802078800713D52D
:103BA000E068D9F8001001F00F0188420CD2A0F1B2
:103BB0000801082980F04381D9F80000E16820F06D
:103BC0000F000843C9F80000D8F8000000F00F000B
:103BD000A8420DD9D8F8000020F00F002843C8F8FB
:103BE0000000D8F8000000F00F00A84240F0DD808F
:103BF000207840071FD52069D9F8001001F0700126
:103C0000884218D26FF0030101EB301104290AD366
:103C10004FEA301038B147F6F54040F27F41C0F628
:103C2000000003F051FAD9F80000216920F070007B
:103C30000843C9F80000207800071FD56069D9F84B
:103C4000041001F07001884218D26FF0030101EBFB
:103C5000301104290AD34FEA301038B147F6F54045
:103C600040F29141C0F6000003F02EFAD9F80400AA
:103C7000616920F070000843C9F804002078C0068C
:103C80001FD5A069D9F8041001F4E061884218D268
:103C90006FF0030101EB302104290AD34FEA3020F1
:103CA00038B147F6F54040F2A341C0F6000003F0FA
:103CB0000BFAD9F80400A16920F4E0600843C9F8C0
:103CC0000400207880061FD5E069D9F8081001F0BB
:103CD0007001884218D26FF0030101EB3011042902
:103CE0000AD34FEA301038B147F6F54040F2B541FB
:103CF000C0F6000003F0E8F9D9F80800E16920F007
:103D000070000843C9F8080000F0F6F8D9F8001070
:103D100047F60E42C0F60002D9F80030C1F3032185
:103D200003F00F03515CD25C01F01F01C84002F0A8
:103D30001F0140F2040220FA01F1C2F200421160B8
:103D400040F2000140F20C02C2F20041C2F2004215
:103D500008601068FEF77CFA01B0BDE8F083A06847
:103D60006FF0070101EB302108294FD26068042869
:103D700007D347F6F54040F21D41C0F6000003F0BE
:103D8000A3F9D9F8000020F47061D4E901020128F8
:103D900041EA0201C9F800100BD003282CD00228F8
:103DA0002FD159F8181C890307D4012001B0BDE8B0
:103DB000F08359F8181CC905F7D559F8081C21F0EB
:103DC0000701084349F8080CFEF7F6F9064641F2E8
:103DD000883700BF59F8080C616800F03800B0EB74
:103DE000C10F3FF4DAAEFEF7E7F9801BB842F1D914
:103DF000032001B0BDE8F08359F8181C8901D4D51F
:103E0000DBE759F8181C4907CFD5D6E74FEA302031
:103E10000028ABD047F6F54040F21C41C0F6000048
:103E200003F052F9A2E700283FF4ABAE47F6F540A5
:103E300040F20C41C0F6000003F046F9A1E600286C
:103E40003FF4BAAE47F6F54040F25E41C0F60000DE
:103E500003F03AF9B0E6000080B500F04DF844F206
:103E6000184147F60E43C5F60201C0F600030A6882
:103E7000096801F00F01C2F30322595C9A5C02F059
:103E80001F0220FA02F201F01F0040F2040122FAA0
:103E900000F0C2F20041086040F20001C2F20041AD
:103EA0000A6080BD0000000080B5FFF7D5FF44F236
:103EB0001C4147F60E42C5F60201C0F60002096831
:103EC000C1F30211515C01F01F01C84080BD000028
:103ED00080B5FFF7C1FF44F21C4147F60E42C5F61C
:103EE0000201C0F600020968C1F30221515C01F031
:103EF0001F01C84080BD000044F20041C5F6020128
:103F00000869C0F3C20003280FD002282AD070BB72
:103F10000868800649F20000C0F2D03058BF7047F0
:103F20000968C1F3C101C84070478A6A886AC0F352
:103F3000051CC86ABCF1000F4B6B1DD0C3F3CC034A
:103F400000F00100584302F00302022A00EE100ABA
:103F5000B8EE400A12D0A2B90868800614D49FEDCA
:103F6000261A1EE047F64000C0F27D10704740F66A
:103F70000010C0F23D007047002070479FED1D1AF1
:103F80000FE09FED1B1A0CE0086849F20002C0F236
:103F9000D032C0F3C10022FA00F001EE100AB8EEF0
:103FA000411A086B9FED153A6FF35F2002EE100A7D
:103FB000086BC0F34620B8EE422A013000EE032A17
:103FC00000EE10CAB7EE003AB8EE400A81EE000AE1
:103FD00032EE031A20EE010A01EE100AB8EE411A81
:103FE00080EE010ABCEEC00A10EE100A704700BF56
:103FF0000024744A20BCBE4B0024744C00000039DD
:10400000F0B585B00646022814460D4607D347F69C
:10401000F54040F20A51C0F6000003F055F8A4F54F
:1040200080204FEAB0400F2807D347F6F54040F212
:104030000B51C0F6000003F047F8002E44F2E047B1
:1040400040F20006C5F60207C5F602062AD085F042
:104050000040E90041EA5070072851D8012101FAD7
:1040600000F010F0F30F4BD03868694640F00400C0
:104070003860386800F00400009000984FF4007039
:1040800000900220019003200390002002900490F1
:1040900006F50060FDF70CFF57F8D00CE40120F0A6
:1040A0007E4026E04FEAB550052807D347F6F54095
:1040B00040F20F51C0F6000003F006F83868694678
:1040C00040F001003860386800F00100009000986E
:1040D0004FF4807000900220019003200390002094
:1040E000029004903046FDF7E3FE57F8D00C20F024
:1040F000FE7044EA0501084347F8D00C05B0F0BD56
:1041000047F6F54040F22151C0F6000002F0DCFF16
:10411000AAE70000000000002DE9F04381B0B0B331
:104120008046006850B110F03F0007D147F6F540D7
:1041300040F2A111C0F6000002F0C6FF98F800009E
:1041400044F20049C5F60209C0076ED0D8F8040051
:1041500028B1B0F5803F18BFB0F5A02F2ED1D9F807
:10416000100000F03801D9F82800102905D01829CE
:1041700010D100F0030002280CD1D9F80000800310
:104180004FD5D8F8040000284BD101273AE0012789
:1041900000F028BCD8F804402CB1B4F5A02F16D0FC
:1041A000B4F5803F19D0D9F8000020F48030C9F868
:1041B0000000D9F8000020F4802012E047F6F54016
:1041C0004FF4D371C0F6000002F07EFFC7E7D9F8C4
:1041D000000040F48020C9F80000D9F8000040F445
:1041E0008030C9F80000FDF7E7FF0546ACB100BF1D
:1041F000D9F80000800314D4FDF7DEFF401B6428CB
:10420000F6D903270020002800F0EC830DE000BF62
:10421000FDF7D2FF401B6428F3D8D9F800008003D3
:10422000F6D40120002800F0DD8398F80000800714
:1042300040F1A980D8F80C00192800F293800121E0
:1042400001FA00F040F20321C0F20221084200F01E
:104250008980D8F81000802807D347F6F54040F24F
:10426000DB11C0F6000002F02FFFD9F8100010F0AB
:104270003801D9F828001DD0182908BF5FEA8070DE
:1042800018D0D8F80C00D9F80010002848D021F038
:1042900019010843C9F80000FDF78EFF054600BF6D
:1042A000D9F8000040072AD4FDF786FF401B0228FA
:1042B000F6D91EE0D9F80000400704D5D8F80C0064
:1042C000002800F05E82D9F80000D8F80C1020F029
:1042D00019000843C9F80000FDF76EFF054600BF4E
:1042E000D9F8000040070AD4FDF766FF401B0228FA
:1042F000F6D903270024002C00F0748343E0FDF777
:1043000053FF41F20301884223D8D8F81000D9F8AE
:104310000410402821F47C312DD141F400302CE0F0
:1043200021F00100C9F80000FDF746FF054601260F
:10433000D9F8000010F0040086EA900420D0FDF7C0
:104340003BFF401B0328F3D30327002C00F04A83D4
:1043500019E0D9F80400D8F8101020F0FE4040EA27
:1043600001600AE047F6F5404FF4ED71C0F6000039
:1043700002F0AAFE6DE741EA0030C9F8040001240A
:10438000002C00F02F8398F80000C00640F18F80C9
:10439000D8F81C0040F08000802807D047F6F54090
:1043A00040F22B21C0F6000002F08EFED8F820006B
:1043B000402807D347F6F5404FF40B71C0F60000D4
:1043C00002F082FED9F8100000F03801D9F8280078
:1043D000082905D018291CD100F00300012818D1A4
:1043E000D9F80000C00503D5D8F81C00802859D1A1
:1043F000FDF7DAFE41F20301884222D8D8F8200006
:10440000D9F80410202821F0F84142D141F0804031
:1044100041E0D8F81C000028D9F8000020D040F076
:104420008000C9F80000FDF7C7FE0546D9F8000076
:10443000C005DDD4FDF7C0FE401B0228F6D90327D6
:1044400031E0D9F80C00D8F8201020F07C5001247D
:1044500040EA0160C9F80C00002C00F0C38226E09D
:1044600020F08000C9F80000FDF7A6FE05460126F1
:10447000D9F8000010F4807086EA10240ED0FDF701
:104480009BFE401B0328F3D30327002C00F0AA82D5
:104490000DE041EA8060C9F804000124002C00F01E
:1044A000A18204E001270024002C00F09B8298F8F0
:1044B0000000000728D498F80000800649D498F836
:1044C0000000400769D4D8F82400032807D347F632
:1044D000F5404FF43D71C0F6000002F0F5FDD8F84C
:1044E0002400002800F0BB80D9F8101001F038013A
:1044F000182940F0B6800128D9F82810D9F83000E2
:1045000040F0418101276DE2D8F81400022807D35A
:1045100047F6F54040F26D21C0F6000002F0D4FDF0
:10452000D8F814000028D9F874005CD040F00100DD
:10453000C9F87400FDF740FE054600BFD9F87400C5
:104540008007B8D4FDF738FE401B0228F6D90327B0
:1045500048E2D8F81800022807D347F6F5404FF490
:104560002671C0F6000002F0AFFDD8F81800002850
:10457000D9F800005FD040F48050C9F80000FDF782
:104580001BFE0546D9F80000800498D4FDF714FE00
:10459000401B0228F6D9032724E2D8F80800052892
:1045A00005D8012101FA00F010F0230F07D147F6DA
:1045B000F54040F2C221C0F6000002F085FDD9F8B6
:1045C000000440F48070C9F80004FDF7F5FD0546CD
:1045D000D9F80004C0051AD4FDF7EEFD401B64288D
:1045E000F6D90327FEE120F00100C9F87400FDF7B9
:1045F000E3FD0546032700BFD9F8740080077FF567
:104600005AAFFDF7D9FD401B0228F5D9EAE1D8F8E9
:1046100008402CB1052C00F00681012C00F0098126
:10462000D9F8700020F00100C9F87000D9F87000C6
:1046300020F0040001E120F48050C9F80000FDF7EB
:10464000BBFD0546032700BFD9F8000080047FF5B5
:1046500036AFFDF7B1FD401B0228F5D9C2E10027B6
:10466000C0E1022840F0C980D8F82800042807D308
:1046700047F6F54040F2FD21C0F6000002F024FDAF
:10468000D8F840004FEAB000042807D347F6F540B9
:1046900040F2FE21C0F6000002F016FDD8F84400FA
:1046A00040F00200022807D047F6F54040F2FF2113
:1046B000C0F6000002F008FDD8F82C0001383F28B1
:1046C00007D347F6F5404FF44071C0F6000002F002
:1046D000FBFCD8F830000438B0F5FE7F07D947F668
:1046E000F54040F20131C0F6000002F0EDFCD8F8D0
:1046F00034000138802807D347F6F54040F20231F4
:10470000C0F6000002F0E0FCD8F83800013880283C
:1047100007D347F6F54040F20331C0F6000002F03F
:10472000D3FCD8F83C000138802807D347F6F54081
:104730004FF44171C0F6000002F0C6FCD8F8480002
:10474000B0F5005F07D347F6F54040F20531C0F6FB
:10475000000002F0B9FCD9F8000020F08070C9F820
:104760000000FDF729FD0546032700BFD9F800002A
:10477000800140F18480FDF71FFD401B0228F5D920
:1047800030E10127B6E501F00302D8F828309A425B
:1047900040F0F080C1F30511D8F82C20914240F090
:1047A000ED800146D8F830206FF35F21013A914245
:1047B00040F0E680C0F34622D8F8341001398A422E
:1047C00040F0E080C0F30642D8F8381001398A4240
:1047D00040F0DA80C0F30660D8F83C100139884216
:1047E00040F0D480D9F83400C0F3CC01D8F84800A8
:1047F000884240F0CD800027F4E0D9F8000020F096
:104800008070C9F80000FDF7D7FC0446032700BFFD
:10481000D9F80000800140F1AB80FDF7CDFC001B12
:104820000228F5D9DEE0D9F8700040F00400C9F89C
:104830007000D9F8700040F00100C9F87000FDF771
:10484000BBFC002C054641F288344FF0030711D021
:10485000D9F8700080073FF536AEFDF7ADFC401B80
:10486000A042F5D9BEE000BFFDF7A6FC401BA04268
:1048700000F2B880D9F870008007F5D423E608F17B
:104880002807D9F8280040F2F33188438ECF084337
:10489000591E40EA02104FF47E426FF35F21C9F8BF
:1048A000280002EB47204FF4FE0280B2D8F83C30DB
:1048B0000844D8F8381002EB01414FF0FE4201F4F1
:1048C000FE0102EB0362084402F0FE410844C9F80D
:1048D0003000D9F82C004FF6F87120F00100C9F82B
:1048E0002C00D9F83400D8F84820884340EAC200A8
:1048F000C9F83400D9F82C00D8F8401020F00C008A
:104900000843C9F82C00D9F82C00D8F8441020F03E
:1049100002000843C9F82C00D9F82C0040F480307C
:10492000C9F82C00D9F82C0040F40030C9F82C004C
:10493000D9F82C0040F48020C9F82C00D9F82C00BC
:1049400040F00100C9F82C00D9F8000040F0807058
:10495000C9F80000FDF730FC04460327D9F8000031
:10496000800109D4FDF728FC001B0228F6D939E0A4
:10497000002737E0012735E0002733E0012731E049
:1049800001272FE001272DE001272BE0012729E057
:10499000B0F5005F07D347F6F5404FF45B71C0F602
:1049A000000002F091FBD9F82C0020F00100C9F8BA
:1049B0002C00FDF701FC0546FDF7FEFBA842FBD0ED
:1049C000D9F834004FF6F871D8F84820884300270A
:1049D00040EAC200C9F83400D9F82C0040F00100C8
:1049E000C9F82C00F8B201B0BDE8F0830000000067
:1049F00080B501F0C1FB80BD7047000000000000E1
:104A00007047000000000000704700000000000038
:104A10002DE9F04141F2FF3204460068C4F2000281
:104A200090420D4614DC40F2FF71C4F2000188424E
:104A300026DD40F60001C4F2000188423AD040F67B
:104A40000041C4F20001884234D041F2000125E067
:104A50004FF6FF71C4F20001884217DD0021C4F255
:104A60000101884226D040F20041C4F2010188428F
:104A700020D044F20001C4F2010188421AD011E0B2
:104A8000B0F1804F16D040F2004107E041F2004102
:104A9000C4F2000188420DD041F60001C4F20001C9
:104AA000884207D047F64F604FF4FA61C0F6000025
:104AB00002F00AFB28684FEA3010082807D347F6AF
:104AC0004F6040F2D171C0F6000002F0FDFAA86814
:104AD00040F08000802807D047F64F6040F2D27146
:104AE000C0F6000002F0F0FA94F83C0001284FF004
:104AF000020008BFBDE8F081012184F83C1084F871
:104B00003D0040F200482068C4F2010840F4806192
:104B100041454768866811D168684FEA30501028CF
:104B200007D347F64F6040F2E471C0F6000002F090
:104B3000CBFA27F47000696841EA000741F2FF727E
:104B40002068C4F2000227F070012B68904241EA0D
:104B5000030141600BDC40F2FF71C4F200018842A6
:104B600015DCB0F1804F27D040F2004117E040F251
:104B7000FF31C4F20101884216DC41F60001C4F2A3
:104B80000001884218D00021C4F2010109E040F67A
:104B90000001C4F2000188420ED040F60041C4F288
:104BA0000001884208D00CE044F20001C4F2010187
:104BB000884201D0404504D126F08001AA68114303
:104BC0008160012084F83D00002084F83C00BDE8AD
:104BD000F081000000000000F8B1B0B541F6FF31EF
:104BE00004460068C4F20001884218DC40F6FF3138
:104BF000C4F20001884227DD41F2FF31C4F2000116
:104C000088423DDC40F60041C4F2000188424ED0AB
:104C100041F20001C4F2000147E00120704740F278
:104C2000FF31C4F2010188421CDD44F2FF31C4F2BD
:104C3000010188422FDC40F20041C4F201018842A8
:104C400035D044F200012EE0B0F1804F2FD040F279
:104C50000041C4F20001884229D040F60001C4F2AC
:104C6000000122E041F60041C4F2000188421ED05A
:104C700042F20001C4F20001884218D0002112E083
:104C800041F20041C4F20001884210D041F6000117
:104C9000C4F2000109E044F20041C4F2010188427B
:104CA00005D044F60001C4F20101884278D1A06821
:104CB0004FEA301006286AD8012101FA00F010F0FE
:104CC000570F64D0206928B1B0F5807F18BFB0F5C8
:104CD000007F53D12068B0F1804F05D040F60041ED
:104CE000C4F20001884242D1E06838B947F6176043
:104CF00040F21911C0F6000002F0E6F9A069251D86
:104D000040F08000802807D047F617604FF48D717F
:104D1000C0F6000002F0D8F994F83D0028B9002050
:104D200084F83C00204600F047F8022084F83D005B
:104D30002068294601F040FB012084F8480084F8EF
:104D40003E0084F83F0084F8400084F8410084F875
:104D5000420084F8430084F8440084F8450084F855
:104D6000460084F8470084F83D000020B0BDE068AC
:104D70004FF6FF7101388842B8D2BFE747F6176097
:104D80004FF48C71C0F6000002F09EF9A2E747F6DE
:104D9000176040F21711C0F6000002F095F991E794
:104DA00047F617604FF48B71C0F6000002F08CF9E3
:104DB0007DE700000000000080B582B041F20001F4
:104DC0000068C4F20001884201D002B080BD44F204
:104DD000E8400022C5F60200016841F010010160C0
:104DE0000068022100F01000019001983620FDF7C4
:104DF0007BFA3620FDF768FA02B080BD00000000A3
:104E000010B541F6FF3104460068C4F20001884243
:104E100016DC40F6FF31C4F20001884225DD41F284
:104E2000FF31C4F2000188423BDC40F60041C4F28D
:104E3000000188424CD041F20001C4F2000145E07B
:104E400040F2FF31C4F2010188421CDD44F2FF311F
:104E5000C4F2010188422FDC40F20041C4F201019A
:104E6000884235D044F200012EE0B0F1804F2FD0BF
:104E700040F20041C4F20001884229D040F600010E
:104E8000C4F2000122E041F60041C4F20001884270
:104E90001ED042F20001C4F20001884218D0002165
:104EA00012E041F20041C4F20001884210D041F604
:104EB0000001C4F2000109E044F20041C4F2010122
:104EC000884205D044F60001C4F20101884258D15D
:104ED00094F83D0001281BD1022084F83D00216890
:104EE00041F2FF70C4F200008142C86840F0010046
:104EF000C8600FDC40F2FF70C4F20000814217DC92
:104F0000B1F1804F2BD040F20040C4F2000024E009
:104F1000012010BD40F2FF30C4F20100814212DCDA
:104F200041F60000C4F20000814218D0002012E0D7
:104F300040F60000C4F20000814210D040F600406C
:104F4000C4F2000009E044F20000C4F20100814212
:104F500005D040F20040C4F2010081420BD107228B
:104F60008868C0F2010202400020062A18BFB2F58C
:104F7000803F00D110BD086840F0010008600020AB
:104F800010BD47F6176040F2D311C0F6000002F0E2
:104F90009BF89DE700000000704700000000000043
:104FA00010B5044600680169890744BFC1685FEA1B
:104FB000817140D420680169490744BFC1685FEA34
:104FC000417144D420680169090744BFC1685FEAA0
:104FD000017149D420680169C90644BFC1685FEA0C
:104FE000C1614DD420680169C9071CBFC1685FEA6F
:104FF000C17152D120680169090644BFC1685FEAE6
:10500000016151D420680169C90544BFC1685FEAE4
:10501000016150D420680169490644BFC1685FEA54
:1050200041614FD420680169890644BFC1685FEAC5
:1050300081614ED410BD6FF0020101610121217721
:10504000806980074CD02046FFF7A6FF4EE06FF046
:105050000401016102212177806910F4407F48D06A
:105060002046FFF799FF4AE06FF008010161042133
:105070002177C069800745D02046FFF78DFF47E0C4
:105080006FF01001016108212177C06910F4407FA1
:1050900041D02046FFF780FF43E06FF0010101613E
:1050A000204600F049F8A5E76FF080010161204635
:1050B000FFF7A6FCA6E76FF4807101612046FFF7B9
:1050C0009BFCA7E76FF040010161204600F068F803
:1050D000A8E76FF0200101612046FFF795FC10BDA5
:1050E000204600F021F8204600F022F8002020772A
:1050F00060E7204600F018F8204600F019F800207C
:1051000020775FE7204600F00FF8204600F010F807
:10511000002020775EE7204600F006F8204600F0E9
:1051200007F8002020775DE77047000000000000CE
:10513000704700000000000010B540F23811006810
:10514000C2F200410968884218BF10BD40F2D00485
:105150004CF6CD41C2F20044CCF6CC412088484305
:1051600049F69911C1F699114FEA7000884201D8A9
:1051700002F0FAF82088B0F57A7F01D10020208073
:10518000208801302080012002F032FC02F0A4FAD5
:1051900040F2D400C2F20040FCF77EFD10BD0000DA
:1051A000704700000000000010B547F2FF71044690
:1051B0000068C4F2000188420EDC44F6FF31C4F2FC
:1051C0000001884217DC44F20041C4F20001884229
:1051D00032D044F6000116E040F6FF71C4F201013E
:1051E000884215DC47F60001C4F20001884223D052
:1051F00047F6004107E044F60041C4F2000188424E
:105200001AD045F20001C4F20001884214D00BE02C
:1052100041F20001C4F2010188420DD041F2004187
:10522000C4F20101884207D047F6C3604FF40D7104
:10523000C0F6000001F048FF94F88400012801D175
:10524000022010BD2420C4F8880021680A6808687C
:1052500022F0005220F001000860002060660A6021
:105260002021C4F8881084F8840010BD00000000DC
:1052700070B547F2FF7204460068C4F20002904223
:105280000D460EDC44F6FF31C4F20001884217DC03
:1052900044F20041C4F20001884232D044F60001D9
:1052A00016E040F6FF71C4F20101884215DC47F6B2
:1052B0000001C4F20001884223D047F6004107E014
:1052C00044F60041C4F2000188421AD045F20001C0
:1052D000C4F20001884214D00BE041F20001C4F294
:1052E000010188420DD041F20041C4F2010188421F
:1052F00007D047F6C36040F29321C0F6000001F0EA
:10530000E3FE4FEA7560062807D347F6C3604FF403
:105310002571C0F6000001F0D7FE94F88400012842
:1053200001D1022070BD012084F884002420C4F83B
:10533000880020680668016821F001010160816829
:1053400021F0606129438160204601F0D5F8206892
:1053500006602020C4F88800002084F8840070BD16
:1053600070B547F2FF7204460068C4F20002904232
:105370000D460EDC44F6FF31C4F20001884217DC12
:1053800044F20041C4F20001884232D044F60001E8
:1053900016E040F6FF71C4F20101884215DC47F6C1
:1053A0000001C4F20001884223D047F6004107E023
:1053B00044F60041C4F2000188421AD045F20001CF
:1053C000C4F20001884214D00BE041F20001C4F2A3
:1053D000010188420DD041F20041C4F2010188422E
:1053E00007D047F6C36040F26221C0F6000001F02A
:1053F0006BFE85F00040E90041EA5070072828D88C
:10540000012101FA00F010F0F30F22D094F884008B
:10541000012801D1022070BD012084F884002420DD
:10542000C4F8880020680668016821F00101016065
:10543000816821F0604129438160204601F05CF8D9
:10544000206806602020C4F88800002084F88400CA
:1054500070BD47F6C36040F26321C0F6000001F062
:1054600033FED3E70000000010B5002800F0AA804A
:105470000446806947F2FF7100282068C4F20001E9
:105480001AD0884233DD40F6FF71C4F20101884230
:105490004BDD41F20001C4F2010188427CD041F2AF
:1054A0000041C4F20101884276D040F60041C5F6C1
:1054B0000001884270D04DE0884227DD40F6FF7140
:1054C000C4F2010188424ADD41F20001C4F2010147
:1054D000884261D041F20041C4F2010188425BD0B0
:1054E00040F60041C5F60001884255D04CE044F634
:1054F000FF31C4F20001884220DC44F20041C4F2D2
:105500000001884248D044F600011FE044F6FF3114
:10551000C4F2000188422BDC44F20041C4F20001D5
:10552000884239D044F600012AE047F60001C4F26F
:105530000001884230D047F6004107E044F60041C0
:10554000C4F20001884227D045F20001C4F20001F4
:10555000884221D047F68A604FF49F7118E047F6E1
:105560000001C4F20001884216D047F6004107E06E
:1055700044F60041C4F2000188420DD045F200011A
:10558000C4F20001884207D047F68A6040F2431116
:10559000C0F6000001F098FDD4F8880028B900207A
:1055A00084F88400204600F027F82420C4F88800FE
:1055B0002068016821F001010160204601F090F9A6
:1055C000012801D1012010BDA06A10B1204600F0D1
:1055D000BFFF2068416821F490414160816821F05B
:1055E0002A018160016841F001010160204601F05B
:1055F000EBF810BD00000000B0B5B8B0044602A83A
:10560000C0210025CDE93655CDE934553395FAF75B
:1056100043FF41F200012068C4F20101884201D039
:1056200038B0B0BD02A80395012402942195FDF77E
:105630003BFA08B1FBF760F944F2E040C5F602001E
:10564000016941F010010161016901F0100101914E
:105650000199016841F001010160006833A900F07F
:105660000100019001984FF4C06033900220349003
:105670000020CDE93504072037900020C5F6020050
:10568000FCF716FC38B0B0BD2DE9F04182B00446FD
:10569000D0F8880020283FD10E4600294FF00100A5
:1056A0004BD01746002A48D01D464FF00008C4F8DA
:1056B00090802120C4F88800FCF77EFDA4F8547087
:1056C000A4F856700746A168B1F5805F0FD1206934
:1056D000002814BF3046B046064608E0206816F899
:1056E000011B8162B4F856000138A4F85600B4F8E2
:1056F0005600A8B18021002220463B46009501F0CB
:105700003FFCE8B9002EE9D138F8020B21680026E9
:105710006FF35F208862E5E7022002B0BDE8F08108
:105720004021002220463B46009501F029FC202123
:105730000028C4F8881018BF032002B0BDE8F0812B
:105740002020C4F88800032002B0BDE8F0810000EA
:10575000FEE70000000000004FF6C0728168C7F647
:10576000FF721140023181607047000000000000AC
:105770004FF6C0728168C5F6FF72114081607047B4
:105780004FF6C0728168C7F6FF7211400131816027
:1057900070470000000000004FF6C0728168C6F636
:1057A000FF72114001F180518160704700000000DC
:1057B000806800F0E0707047806800F440407047F7
:1057C000806800F01F00704741F20001C5F60041FB
:1057D0000A68014602F04050CA68B0F1805F02F0EA
:1057E0001C0008BF70471C2801D110207047C868F2
:1057F00000F01C00704700008068C0F3C0007047D4
:10580000C06C00F4C070B0FA80F04009704700002E
:105810004FF6C0728168C7F6FF7211402031816077
:1058200070470000000000008068C00F7047000053
:105830008068C0F3407070478068C0F340007047D4
:10584000806800F001007047806800F00100704738
:105850008068C0F3007070478068C0F380007047B4
:105860008068C0F380007047C06800F44060B0FA00
:1058700080F040097047000080B5C1F3012301F0BA
:105880001F01C2F384624FF01F0C00EB83000CFA7F
:1058900001F3D0F830E002FA01F12EEA03031943D4
:1058A000016380BD000000004FF6C0728168C7F63A
:1058B000FF72114004318160704700000000000059
:1058C0004FF6C0728168C7F6FF72114010318160D7
:1058D000704700000000000080B5C1F340634FF046
:1058E000070CC1F3045100EB83000CFA01F3D0F86C
:1058F00014E002FA01F12EEA03031943416180BD6D
:1059000080B54FF6FF7ECB43C0F20F0E02F01802B7
:10591000D0F8C0C063EA0E032EFA02F203EA0C03C9
:1059200011401943C0F8C01080BD00000000000005
:10593000826822F47C1211438160704700000000ED
:10594000826822F0E072114381607047000000001D
:10595000036901F01F0123F4F04302FA01F1194336
:10596000016170470000000000EB810002F0F84286
:105970001A43016E01F000411143016670470000B7
:1059800000EB8100016E21F0004111430166704778
:105990004FF6C07C8368C3F6FE7C01F4803102F0D0
:1059A000804203EA0C031144194401F10041816073
:1059B000704700000000000010B58AB040F2D4002B
:1059C00042F20001C2F200400024CDE90844CDE9D2
:1059D0000644CDE90444CDE90244CDE90044C4F2D3
:1059E000020101604FF48021416008210477C0E981
:1059F0000214042101614FF48071818201218161CF
:105A0000C0E90944C4624FF48051C0E90C1480F825
:105A10003840FBF769FE08B1FAF76EFF40F2D40098
:105A200007A9C2F200400794FAF7F2FF08B1FAF7AB
:105A300063FF102040F2FF71C1F2C0000090062009
:105A400001900020029003910421CDE904108DF80B
:105A5000190040F2D400C2F200406946FBF7A4F8F6
:105A600008B1FAF749FF0AB010BD000000000000BD
:105A70002DE9F04F87B044F2E0400025C5F6020062
:105A80000695CDE90455CDE90255016840F2000ABA
:105A900041F0040101600168C5F6020A01F0040149
:105AA00001910199016841F00101016001680AF565
:105AB000006701F0010101910199016841F01001B5
:105AC00001600168012201F0100101910199016852
:105AD00041F00201016001680A2601F00201019112
